S01A0000687964726F732D76312D6669726D776172652E7372656313
S113000071C0000086C0000084C0000082C00000EF
S113001080C000007EC000007CC000007AC00000E8
S113002078C0000076C0000074C0000072C00000F8
S113003070C000006EC000006CC000006AC0000008
S113004068C0000066C0000064C0000062C0000018
S113005060C000005EC000005CC000005AC0000028
S113006058C0000056C0000054C0000052C0000038
S113007050C000004EC000004CC000004AC0000048
S113008048C0000046C0000044C0000042C0000058
S113009040C000003EC000003CC000003AC0000068
S11300A038C0000036C0000034C0000032C0000078
S11300B030C000002EC000002CC000002AC0000088
S11300C028C0000026C0000024C0000022C0000098
S11300D020C000001EC000001CC000001AC00000A8
S11300E018C0000011241FBECFEFD1E2DEBFCDBF88
S11300F000E00CBF12E0A0E0B2E0EAE9F1E000E0C9
S11301000BBF02C007900D92A631B107D9F702D0F8
S113011042C076CF87E690E00DD080E092E01CD01C
S11301208AB181608AB924D02DD09BB181E089271E
S11301308BB9FACF9093C5008093C40088E1809373
S1130140C1008EE08093C20008959091C00095FF95
S1130150FCCF8093C6000895CF93DF93EC0102C0D7
S1130160F4DF219688818111FBCFDF91CF9108952F
S1130170E1E8F0E080818460808310928500109231
S11301808400089586B3816086BBB09BFECF86B39E
S10D0190816086BB0895F894FFCF48
S113019A56657273696F6E3A20487964726F732078
S10901AA76312E30000046
S9030000FC
